:10118600703A0D0A00713A0D0A006E3D000D0A0014
:101196007068693D003029656E630D0A0031296467
:1011A60065630D0A00783D0D0A00793D00793D0D15
:0511B6000A00783D0075
:10113C001875000000000000000100000000000015
:10114C00000000000000000000001C3D000000003A
:10115C000000000000000000000000000000000083
:10116C000000000000000000012C00C10004390048
:09117C00000001042D0000000137
:100E7B00E4FAF9F8AF0CAE0BAD0AAC091208C3AC2F
:100E8B0000AD01AE02AF0322F8120992E51525E081
:100E9B0025E022E4C3FEFDFCAB0CAA0BA90AA809B2
:100EAB00020955E4FBFAF9F8C30209551209798FC7
:100EBB00148E138D128C1178391209798F188E17A5
:100ECB008D168C1522246DF8120979C3EF9514FF3A
:100EDB00EE9513FEED9512FDEC951122120979EFAB
:100EEB0024FFFFEE34FFFEED34FFFDEC34FFFC225C
:100EFB00E4FEFDFCA809C3020955E47FFF7EFFFD5C
:100F0B00FC120985D3020955AB09AA0AA90B0208E1
:010F1B0000D5
:0E0D1C008F0C8E0B8D0A8C098B0D8A0E890FA1
:100D2A008B108A118912E47B0AFAF9F8AF0CAE0B20
:100D3A00AD0AAC091208C3EB2430FF7810E475F051
:100D4A00011209B7EF120819AF0CAE0BAD0AAC09C4
:100D5A00E47B0AFAF9F81208C38F0C8E0B8D0A8C01
:100D6A0009EC4D4E4F70BFAB10AA11A91212081907
:100D7A00850D13850E14850F15E51224FFF9E5116B
:100D8A0034FF851016F5178918C3851783851882CD
:100D9A00E5159582E51495835030AB13AA14A9156D
:100DAA00120800FFAB16AA17A918120800FE78133A
:100DBA00E475F0011209B7EE120819781674FFF5F6
:0A0DCA00F01209B7EF12081980BFFC
:010DD40022FC
:061071008B098A0A890BBD
:10107700E4F50FF50EF50DF50C120F13FF6051C3D4
:101087009430404CEFD394395046E47F0AFEFDFC80
:10109700AB0FAA0EA90DA80C120838A804C005C0EA
:1010A70006C007120F1324D0FFE434FFFE3395E088
:1010B700FDFCD003D002D00112082B8F0F8E0E8DAE
:1010C7000D8C0C7401250BF50BE4350AF50A80A984
:0810D700AF0FAE0EAD0DAC0C25
:0110DF0022EE
:080DD5008F108E0F8D0E8C0DA6
:100DDD00E4751C01F51BF51AF5198074E4FFFEFD91
:100DED00FCAB14AA13A912A811D31209554076E52C
:100DFD00145401FFE4FEFDFC7B01FAF9F8120955CC
:100E0D007026AF10AE0FAD0EAC0DAB1CAA1BA91A00
:100E1D00A819120838AB18AA17A916A815120E870B
:100E2D008F1C8E1B8D1A8C19AF14AE13AD12AC1115
:100E3D0078011209668F148E138D128C11AF10AEBE
:100E4D000FAD0EAC0DA804A905AA06AB0712083804
:100E5D00AB18AA17A916A815120E878F108E0F8D15
:0D0E6D000E8C0DA1E9AF1CAE1BAD1AAC1927
:010E7A002255
:080B5B008F0C8E0B8D0A8C0932
:100B63007859120992AF10AE0FAD0EAC0D785D122D
:100B73000992751502120E972455F8120985C000C3
:100B8300120E972451F8120979D000120E87120E13
:100B9300972459120E932455F8120985C000120E9A
:100BA300972451F8120979D0001208C3120E972422
:100BB30039120E932471F8120979120E972439F819
:100BC300120985120838AB0CAA0BA90AA809120E40
:100BD300878F148E138D128C11120E97246DF812B9
:100BE3000979A811D31209554018120E97120ED085
:100BF300FCEF250CFFEE350BFEED350AFDEC350958
:100C0300801D120E97246DF8120979AB14AA13A94B
:100C130012A811C31209555010120E97120ED0FCD0
:100C2300120E972475F8120992120E972459F8128E
:100C33000979120EAE7009120E972471F802097920
:0F0C43000515E515644060026178E4FFFEFDFCD5
:010C5200227F
:1011BB00EF14601214601414601614601824047079
:1011CB0019E47F028017E47F038012E47F04800D13
:1011DB00E47F058008E47F078003E47F0BFEFDFCC2
:0111EB0022E1
:080C53008F0C8E0B8D0A8C0939
:100C5B00E47F01D3120EA050037F00227F02120EFD
:100C6B009E60167F03120EFB600F7F05120EFB605A
:100C7B0008E47F07120EFC70037F0122E50C540180
:100C8B00FFE4FEFDFC120EAF7002FF227F64120E1A
:100C9B009E50287B03120E7B120EAE7002FF227B3E
:100CAB0005120E7B120EAE7002FF22E47B07120EB2
:100CBB007C120EAE7002FF227F0122E478A8F67838
:100CCB00A8E6FFC3940550461211BB08120992E522
:100CDB000C24FFFFE50B34FFFEE50A34FFFDE509AD
:100CEB0034FF8F148E138D12F511850C18850B178D
:100CFB00850A1685091578A9120979120DD5E47B99
:100D0B0001120EB060037F002278A80680B17F012C
:010D1B0022B5
:080FA8008F148E138D128C11C1
:100FB000E4FFFEFDFCAB18AA17A916A815C3120979
:100FC00055602F85181C85171B85161A851519A8BD
:100FD00015AF14AE13AD12AC11120E878F188E1709
:100FE0008D168C15851C14851B13851A12851911F5
:0A0FF00080BEAF14AE13AD12AC11B9
:010FFA0022D4
:081000008F0C8E0B8D0A8C0988
:10100800E4751002F50FF50EF50DAF0CAE0BAD0A39
:10101800AC09AB10AA0FA90EA80DC312095550426E
:10102800850C18850B17850A16850915AF10AE0FA4
:10103800AD0EAC0D120FA8E47B01120EB07009AF13
:1010480010AE0FAD0EAC0D22E5102401FFE4350FF4
:10105800FEE4350EFDE4350D8F108E0F8D0EF50D67
:0810680080A8E47F01FEFDFCFD
:01107000225D
:10121000E4FEEEC39F5011E4FDFC0DBD00010CBCCB
:0812200004F8BDFBF50E80EAA5
:0112280022A3
:07124E008F997F05021210C9
:10122900120800FF600C12124E740129F9E43AFA0F
:0312390080EE2222
:10123C00758920758DFD75985075A890438780D25F
:02124C008E22F0
:1011EC0078A812099E000000003000137B007A00E2
:1011FC00792112107178A8120992E4F52CC20078AA
:04120C00A8020979B2
:030023000210E0E8
:1010E000C0E0C0D075D000C000C007309904C299DC
:0210F00080413D
:1010F200859908E508640D6005E508B40A12E52C37
:10110200D39400402A7421252CF87600D200801F47
:10111200E508C394304018E508D394395011E52C02
:10112200C3940A500AAF2C052C74212FF8A608C2CA
:011132009824
:09113300D007D000D0D0D0E0328A
:1009C700C20112123C7BFF7A11798612122930007C
:1009D700FD1211EC78981209927898120F0550E5DC
:1009E7007898120979120C53EF60DA78981209791E
:1009F70078391209927898120EE7782D1209927BAE
:100A0700FF7A11798B1212293000FD1211EC789CB4
:100A1700120992789C120F0550AB789C1209791233
:100A27000C53EF60A07839120979789C1209851266
:100A370008387839120992782D120985C000789CF8
:100A4700120EE7D000120838782D1209927BFF7A30
:100A57001179901212297839120B3C7A1179961272
:100A67001229782D120B3C782D1209791210007873
:100A77003512099278351209798F108E0F8D0E8CE9
:100A87000D782D120979120B5B78311209927BFFD1
:100A97007A11799B1212297A1179A312122930003F
:100AA700FD1211ECEC4D4E4F24FF92012001337BD8
:100AB700FF7A1179AB1212293000FD1211EC78A0E0
:100AC7001209927835120EB778A0120979120DD54E
:100AD70078A41209927BFF7A1179B012122978A4AF
:100AE70080343001A97BFF7A1179B31212293000C3
:100AF700FD1211EC78A41209927831120EB778A47E
:100B0700120979120DD578A01209927BFF7A117913
:100B1700B812122978A01209797B007A00798D1210
:100B27000D1C7B007A00798D1212297BFF7A1179CF
:040B370093121229DA
:100B3B00221209797B007A00798D120D1C7B007AC9
:100B4B0000798D1212297BFF7A11799312122922C7
:03000000020F1CD0
:0C0F1C00787FE4F6D8FD7581AC020F630D
:10080000BB010689828A83E0225002E722BBFE02F6
:09081000E32289828A83E4932229
:10081900BB010689828A83F0225002F722BBFE01BE
:02082900F322B8
:0D082B00EF2BFFEE3AFEED39FDEC38FC221C
:10083800E88FF0A4CC8BF0A42CFCE98EF0A42CFC5F
:100848008AF0EDA42CFCEA8EF0A4CDA8F08BF0A4DD
:100858002DCC3825F0FDE98FF0A42CCD35F0FCEB3C
:100868008EF0A4FEA9F0EB8FF0A4CFC5F02ECD3901
:0F087800FEE43CFCEAA42DCE35F0FDE43CFC226E
:1008870075F008758200EF2FFFEE33FECD33CDCC28
:1008970033CCC58233C5829BED9AEC99E5829840AB
:1008A7000CF582EE9BFEED9AFDEC99FC0FD5F0D688
:1008B700E4CEFBE4CDFAE4CCF9A88222B800C1B9B2
:1008C7000059BA002DEC8BF084CFCECDFCE5F0CBF0
:1008D700F97818EF2FFFEE33FEED33FDEC33FCEB29
:1008E70033FB10D703994004EB99FB0FD8E5E4F9E4
:1008F700FA227818EF2FFFEE33FEED33FDEC33FCD1
:10090700C933C910D7059BE99A4007EC9BFCE99AC4
:10091700F90FD8E0E4C9FAE4CCFB2275F010EF2F09
:10092700FFEE33FEED33FDCC33CCC833C810D70709
:100937009BEC9AE899400AED9BFDEC9AFCE899F844
:0E0947000FD5F0DAE4CDFBE4CCFAE4C8F922D7
:10095500EB9FF5F0EA9E42F0E99D42F0E89C45F0F8
:01096500226F
:10096600E8600FECC313FCED13FDEE13FEEF13FF6F
:03097600D8F12293
:0C097900E6FC08E6FD08E6FE08E6FF22AA
:0D098500E6FB08E6F908E6FA08E6CBF822E2
:0C099200ECF608EDF608EEF608EFF62291
:10099E00D083D082E493F608740193F60874029320
:0909AE00F608740393F674047357
:1009B700FAE6FB0808E6F925F0F618E6CA3AF62241
:100F28000209C7E493A3F8E493A34003F68001F20F
:100F380008DFF48029E493A3F85407240CC8C333CA
:100F4800C4540F4420C8834004F456800146F6DF99
:100F5800E4800B010204081020408090113CE47EDC
:100F6800019360BCA3FF543F30E509541FFEE4938E
:100F7800A360010ECF54C025E060A840B8E493A355
:100F8800FAE493A3F8E493A3C8C582C8CAC583CA80
:100F9800F0A3C8C582C8CAC583CADFE9DEE780BE38
:011185000069
:00000001FF
